:020000040800F2
:10000000B80A0020290400089D0100089F0100088B
:10001000A3010008A7010008AB01000800000000D0
:10002000000000000000000000000000AF01000818
:10003000B101000800000000B3010008B50100088C
:100040004304000843040008430400084304000874
:100050004304000843040008430400084304000864
:100060004304000843040008430400084304000854
:100070004304000843040008430400084304000844
:100080004304000843040008430400084304000834
:100090004304000843040008430400084304000824
:1000A00043040008613000084304000843040008CA
:1000B0004304000843040008430400084304000804
:1000C00043040008430400084304000843040008F4
:1000D00043040008430400084304000843040008E4
:1000E00043040008430400084304000800F002F839
:1000F00000F03FF80AA090E8000C82448344AAF183
:100100000107DA4501D100F034F8AFF2090EBAE880
:100110000F0013F0010F18BFFB1A43F0010318473B
:10012000043D0000243D0000103A24BF78C878C187
:10013000FAD8520724BF30C830C144BF04680C60ED
:10014000704700000023002400250026103A28BF35
:1001500078C1FBD8520728BF30C148BF0B60704739
:10016000642903F03780002070471FB51FBD10B50C
:1001700010BD03F0F5F81146FFF7F7FF00F00CF99A
:1001800003F013F903B4FFF7F2FF03BC02F024FB02
:1001900030BF72B662B680F308887047704700BF00
:1001A000FEE700BFFEE700BFFEE700BFFEE77047C7
:1001B00070477047704700000CB500200190009018
:1001C0006C48006840F480306A49086000BF6948A4
:1001D000006800F4003000900198401C01900098E5
:1001E00018B90198B0F5A06FF1D16248006800F429
:1001F000003010B10120009001E000200090009834
:10020000012843D15C48006840F010005A4908605A
:100210000846006820F0030008600846006840F0C7
:1002200002000860534840685249486008464068E8
:1002300048600846406840F480604860084640686E
:1002400020F47C1048600846406840F4E81048609C
:100250000846006840F08070086000BF45480068AC
:1002600000F000700028F9D04248406820F00300F8
:10027000404948600846406840F00200486000BFBE
:100280003C48406800F00C000828F9D10CBD10B5BE
:10029000FFF792FF10BD10B53648006840F001002E
:1002A000344908600846406834490840314948608C
:1002B00008460068324908402E4908600846006830
:1002C00020F4802008600846406820F4FE00486062
:1002D0004FF41F008860FFF7DAFF4FF000602949F4
:1002E000086010BD10B5002100200022214B5B6882
:1002F00003F00C0121B1042906D0082928D107E018
:10030000214B224C236027E01F4B204C236023E02D
:10031000184B5B6803F47010164B5B6803F4803273
:10032000022303EB904022B9194B4343174C23603F
:100330000DE0104B5B6803F4003323B1144B4343CF
:10034000124C236003E0104B4343104C236003E046
:100350000D4B0E4C236000BF00BF064B5B68C3F320
:1003600003130C4CE15C094B1B68CB40074C23602A
:1003700010BD000000100240002002400000FFF805
:10038000FFFFF6FE08ED00E000127A0000000020FA
:1003900000093D000400002002F056F84FF416500A
:1003A00002F029FA012002F0A9F902F067FA02F03E
:1003B00095FA022002F0B8F8642002F082F802F008
:1003C000ADFD642002F07DF802F0F3FC02F030FE97
:1003D00041F61F41632002F0FFFD0DE00748016870
:1003E00007A002F0B7FE0A4801680AA002F0B2FEB8
:1003F0004FF4967002F065F8F0E70000140000205A
:10040000506F736974696F6E5F583A25640000001D
:100410001800002020202020506F736974696F6ECF
:100420005F593A25640D0A0009488047094800478A
:10043000FEE7FEE7FEE7FEE7FEE7FEE7FEE7FEE794
:10044000FEE7FEE704480549054A064B70470000F1
:1004500097020008ED000008B8040020B80A002048
:10046000B8060020B806002031490143314A116026
:10047000704770B5002100230F22C47804B32D4CBF
:10048000246804F4E064C4F5E064210AC1F10403C3
:10049000CA40447804FA03F18478144021430901E6
:1004A000254C0678A155047804F01F050124AC40C2
:1004B00005786D11AD0005F1E025C5F8004109E0B2
:1004C000047804F01F050124AC401C4D0678761119
:1004D00045F8264070BD1A4A0A400243154B1B1FBF
:1004E0001A60704739B1134A121D12680243114B4A
:1004F0001B1D1A6006E00F4A121D126882430D4B45
:100500001B1D1A607047042808D14FF0E0210969CB
:1005100041F004014FF0E022116107E04FF0E021CB
:10052000096921F004014FF0E022116170470000D9
:100530000000FA050CED00E000E400E080E100E0DE
:1005400080FFFF1F10B50446FA48844208D10121FC
:10055000401500F01DFE0021601500F019FE17E0A7
:10056000F548844208D10121001500F011FE002158
:10057000201500F00DFE0BE0F048844208D1012167
:10058000C80300F005FE00214FF4004000F000FE1B
:1005900010BD30B50246002000235068E84C2040D2
:1005A0000D790C6844EA0524204350609068E54CBE
:1005B0002040D1E902542C434D7944EA45042043BC
:1005C0009060D06A20F470000C7C641EE4B2234377
:1005D00040EA0350D06230BD0021016001714171D9
:1005E0008160C16001210174704721B1826842F0CD
:1005F0000102826003E0826822F00102826070479B
:1006000021B1826842F48072826003E0826822F441
:1006100080728260704710B50023CBB21AB1446873
:100620001C43446002E044689C43446010BD816800
:1006300041F0080181607047014600208A6802F09D
:1006400008020AB1012000E000207047816841F0F3
:10065000040181607047014600208A6802F00402AC
:100660000AB1012000E00020704721B1826842F405
:10067000A002826003E0826822F4A00282607047D8
:10068000014600208A6802F480020AB1012000E0DD
:100690000020704710B50A4600210023416821F46C
:1006A0006041531E41EA4331416010BD21B14268AF
:1006B00042F40062426003E0426822F40062426059
:1006C0007047F0B504460D4600200021092D11DDCC
:1006D000E068A5F10A0606EB4607072606FA07F1C9
:1006E0008843A5F10A0606EB460603FA06F108431D
:1006F000E0600CE0206905EB4507072606FA07F1E4
:10070000884305EB450603FA06F108432061072AF2
:100710000FDA606B561E06EB86071F2606FA07F1F6
:100720008843561E06EB860605FA06F10843606309
:1007300022E00D2A0FDA206BD61F06EB86071F2654
:1007400006FA07F18843D61F06EB860605FA06F17E
:100750000843206310E0E06AA2F10D0606EB86076D
:100760001F2606FA07F18843A2F10D0606EB86065E
:1007700005FA06F10843E062F0BD21B1826842F457
:100780008012826003E0826822F4801282607047E7
:100790000146C86C80B2704766484C3000687047AC
:1007A00021B1426842F48062426003E0426822F470
:1007B00080624260704721B1426842F480524260D8
:1007C00003E0426822F48052426070470A460021EA
:1007D000816821F4E04111438160704721B1826852
:1007E00042F40042826003E0826822F400428260A8
:1007F000704721B1826842F40212826003E082688D
:1008000022F4021282607047014600208A6802F4D6
:1008100000120AB1012000E000207047F0B5044644
:100820001546002000220026092911DDE068A1F10B
:100830000A0707EB470C072707FA0CF29043A1F1D0
:100840000A0707EB470703FA07F21043E0600CE0E2
:10085000206901EB410C072707FA0CF2904301EBEA
:10086000410703FA07F210432061A06BC0F3015661
:10087000EF1C06F1010CA7EB0C0707EB870C1F27F9
:1008800007FA0CF29043EF1C06F1010CA7EB0C07E2
:1008900007EB870701FA07F21043A063F0BD10B51C
:1008A0000A4600210023816B21F44011531E41EAC6
:1008B0000351816310BD08B5002300930090009B95
:1008C0000B440093009B1A6008BD08B50246002047
:1008D0000090009201F12800009B184400900098BD
:1008E000006880B208BD0A4600214168164B1940D5
:1008F0001143416070474162826270470A4600219D
:10090000416821F01F0111434160704740B109491E
:100910000831096841F40001064A0832116007E015
:1009200004490831096821F40001024A08321160C3
:10093000704700000024014000280140003C0140B5
:10094000FFFEF0FFFDF7F1FFFFFD3FFF0246002035
:1009500013680B400BB1012000E000207047CA4330
:100960000260704770B502460020002300240B127D
:100970005568CEB205EA060415681D4015B10CB1E4
:10098000012000E0002070BD00220A12D343036062
:100990007047000010B5012000F014FC002000F0AA
:1009A00011FC10BD2A49086070472949091F0860D9
:1009B0007047274984310860704701460020254A66
:1009C00010884FF67F4210400843224A108070473B
:1009D000014600201F4A10884FF6807210400843DD
:1009E0001C4A1080704708B500220092194A2C3A20
:1009F0000092009A02440092009A116008BD08B566
:100A000001460020009013482C38009000980844BC
:100A100000900098008808BD0D489C300068C0B266
:100A200070470C480830008840F00100094908313F
:100A3000088070470648A0300068C0B2704705487B
:100A40000830008840F002000249083108807047F1
:100A500004860D422C6C004010B50446CC488442FC
:100A600008D10121042000F093FB0021042000F0B4
:100A70008FFB46E0C748844208D10121082000F0DE
:100A800087FB0021082000F083FB3AE0C248844243
:100A900008D10121102000F07BFB0021102000F084
:100AA00077FB2EE0BD48844208D10121202000F0D0
:100AB0006FFB0021202000F06BFB22E0B84884424D
:100AC00008D10121402000F063FB0021402000F00C
:100AD0005FFB16E0B348844208D10121802000F07A
:100AE00057FB0021802000F053FB0AE0AE4884420F
:100AF00007D10121801500F04BFB0021A01500F06B
:100B000047FB10BD10B50121084600F041FB002154
:100B1000012000F03DFB10BD2DE9F041024600250B
:100B20000026002000230024002791F803C00CF0C9
:100B30000F0591F803C00CF0100CBCF1000F03D0AE
:100B400091F802C04CEA050591F800C0BCF1000F15
:100B500031D0146800202BE04FF0010C0CFA00F3A8
:100B6000B1F800C00CEA03069E4220D183004FF08A
:100B70000F0C0CFA03F7BC4305FA03FC4CEA04041F
:100B800091F803C0BCF1280F06D14FF0010C0CFA0C
:100B900000FCC2F814C00AE091F803C0BCF1480F91
:100BA00005D14FF0010C0CFA00FCC2F810C0401C3B
:100BB0000828D1D31460B1F800C0BCF1FF0F34DDB8
:100BC000546800202EE000F1080C4FF0010808FAEC
:100BD0000CF3B1F800C00CEA03069E4221D1830059
:100BE0004FF00F0C0CFA03F7BC4305FA03FC4CEA78
:100BF000040491F803C0BCF1280F05D100F1080CE2
:100C000008FA0CF8C2F8148091F803C0BCF1480F40
:100C100007D100F1080C4FF0010808FA0CF8C2F8EF
:100C20001080401C0828CED35460BDE8F0814FF6F8
:100C3000FF710180022181700421C170704702465A
:100C4000002093680B400BB1012000E000207047AA
:100C50000146886880B2704702460020D3680B4086
:100C60000BB1012000E0002070470146C86880B247
:100C7000704701617047416170470AB1016100E04E
:100C800041617047C16070474FF480320A4382610E
:100C90008161826182698269704702460020434B0C
:100CA00018684FF68073184040EA021008433F4B23
:100CB000186070473E49C8617047F0B50A46002386
:100CC00000240021002500F00046B6F1004F02D1BB
:100CD000364EF16901E0354E7168C0F3034583B2C9
:100CE00000F44016B6F5401F08D121F070612F4E78
:100CF000766826F070662D4F7E6012E000F4801654
:100D0000B6F5801F06D1032606FA05F4A14341F08B
:100D1000706106E0460D360103FA06F6B14341F074
:100D2000706122B1460D360103FA06F6314300F038
:100D30000046B6F1004F02D11C4EF16101E01B4E9E
:100D40007160F0BD30B500228B071C0F0F2303FA32
:100D500004F2164B08338C1053F824309343134C91
:100D600008348D1044F8253023468C1053F8243075
:100D70008C07240F00FA04F423430C4C08348D1024
:100D800044F8253030BD0A49DC3108607047000066
:100D900000080140000C0140001001400014014017
:100DA00000180140001C01400020014000000140EB
:100DB0000000204210B50121080700F0F6F90021DB
:100DC0004FF0805000F0F1F910BD2A4908627047D9
:100DD00028490861704701460020274A106820F022
:100DE000E0000843106070472249A0310860704756
:100DF00010B502460020204B186820F00300104375
:100E000018601E4B1B6843F004031C4C236001292F
:100E100001D130BF00E020BF184B1B6823F0040352
:100E2000164C236010BD1448006840F004001249BD
:100E300008600846006840F0020008600F4800683B
:100E400040F004000D49086000BF00BF30BF70478C
:100E500001460020084A52680A400AB1012000E019
:100E6000002070470449096841EA8001024A116084
:100E70007047000000000E420070004010ED00E0DE
:100E8000DF48006840F00100DD490860084640681E
:100E9000DC490840DA49486008460068DA490840F9
:100EA000D74908600846006820F48020086008469A
:100EB000406820F4FE0048604FF41F0088607047CF
:100EC000CF49096821F48031CD4A11601146096883
:100ED00021F480211160B0F5803F03D0B0F5802F60
:100EE0000ED106E0C649096841F48031C44A116058
:100EF00007E0C349096841F4A021C14A116000E03C
:100F000000BF00BF704710B501460022002300203B
:100F10004A11012A02D1BA4C236806E0022A02D102
:100F2000B74C236A01E0B64C636A01F01F0201244A
:100F300094401C400CB1012000E0002010BD38B5E9
:100F4000002000900024002500BF3120FFF7DBFFC8
:100F500005460098401C00900098B0F5A06F01D0A5
:100F6000002DF2D03120FFF7CEFF08B1012400E0C0
:100F70000024204638BD01460020A14A106820F018
:100F8000F80040EAC10010607047A049086070474F
:100F9000024600209A4B586820F47C1042EA010374
:100FA0001843974B58607047984908667047014648
:100FB0000020934A506820F00300084350607047B7
:100FC0008F48406800F00C007047014600208C4AB2
:100FD000506820F0F0000843506070470146002040
:100FE000874A506820F4E06008435060704701462B
:100FF0000020834A506820F4605040EAC1005060ED
:10100000704729B17E4A527A02437D4B5A7204E0FE
:101010007B4A527A82437A4B5A7270477B49D83165
:101020000860704701460020754A506820F440402F
:101030000843506070470021714A20321170704A95
:1010400082F82010012802D004280AD104E00121EE
:101050006B4A2032117005E00521694A2032117077
:1010600000E000BF00BF70476949086070476449ED
:10107000096A0143624A1162704765494439086050
:10108000704730B500210022002400235C4D6D68BC
:1010900005F00C0121B1042905D0082923D105E070
:1010A0005C4D056022E05B4D05601FE0544D6D68AE
:1010B00005F47012524D6D6805F48034022505EB7D
:1010C00092421CB9544D554305600BE04C4D6D6880
:1010D00005F400351DB1504D5543056002E04D4DFE
:1010E0005543056002E04B4D056000BF00BF444D15
:1010F0006D6805F0F0010909484D6B5C0568DD403D
:1011000045603F4D6D6805F4E061090A434D6B5C35
:101110004568DD4085603A4D6D6805F46051C90A47
:101120003E4D6B5C4568DD40C560354D6D6805F42E
:101130004041890B3A4D6B5CC568B5FBF3F5056121
:1011400030BD29B12E4A526902432D4B5A6104E049
:101150002B4A526982432A4B5A61704729B1284A67
:1011600092690243264B9A6104E0254A92698243C0
:10117000234B9A61704729B1214AD2690243204B1F
:10118000DA6104E01E4AD26982431D4BDA6170477E
:1011900029B11B4AD2680243194BDA6004E0184AAD
:1011A000D2688243164BDA60704729B1144A12693B
:1011B0000243134B1A6104E0114A12698243104B37
:1011C0001A61704712494039086070470F49C86476
:1011D00070470B49C87170470948406A40F08070F9
:1011E00007494862704701460020054A92680A4054
:1011F0000AB1012000E00020704701498872704761
:10120000001002400000FFF8FFFFF6FE000042421F
:101210008004424200127A0000093D001C000020B8
:101220002C00002010B50446FE48844208D101215C
:10123000C014FFF7ADFF0021E014FFF7A9FFC4E0E1
:10124000B4F1804F08D101210846FFF7AEFF00211D
:101250000120FFF7AAFFB8E0F348844208D101213A
:101260000220FFF7A2FF00210220FFF79EFFACE063
:10127000EE48844208D101210420FFF796FF0021A7
:101280000420FFF792FFA0E0E948844208D1012141
:101290000820FFF78AFF00210820FFF786FF94E06F
:1012A000E448844208D101211020FFF77EFF00218D
:1012B0001020FFF77AFF88E0DF48844208D101213F
:1012C0002020FFF772FF00212020FFF76EFF7CE057
:1012D000DA48844208D101214014FFF759FF002168
:1012E0006014FFF755FF70E0D548844209D1012111
:1012F000C804FFF74DFF00214FF40020FFF748FF1F
:1013000063E0D048844209D101210805FFF740FF7E
:1013100000214FF48010FFF73BFF56E0CA4884429B
:1013200009D101214805FFF733FF00214FF40010D8
:10133000FFF72EFF49E0C548844208D10121402033
:10134000FFF733FF00214020FFF72FFF3DE0C048AB
:10135000844208D101218020FFF727FF002180204F
:10136000FFF723FF31E0BB48844208D101218015FB
:10137000FFF71BFF0021A015FFF717FF25E0B64878
:10138000844209D101210804FFF702FF00214FF434
:101390008030FFF7FDFE18E0B048844209D10121FA
:1013A0004804FFF7F5FE00214FF40030FFF7F0FE90
:1013B0000BE0AB48844208D101218804FFF7E8FE26
:1013C00000214FF48020FFF7E3FE10BD00220288C9
:1013D000944B98420ED0994B98420BD0B0F1804F6D
:1013E00008D0914B984205D0904B984202D0904B38
:1013F000984204D14FF68F731A404B881A438D4B95
:10140000984207D08C4B984204D04FF6FF431A40C5
:10141000CB881A4302808B8883850B880385814B98
:1014200098420BD0854B984208D08B4B984205D000
:101430008A4B984202D08A4B984201D10B7A03869C
:1014400001238382704770B5002400220023058C9D
:101450004FF6FE7635400584028C8388048B4FF668
:101460008F752C40B51E2C400D882C43751E2A40CC
:101470000D892A434D882A436A4DA8420BD06F4DEF
:10148000A84208D0744DA84205D0744DA84202D09D
:10149000734DA84213D14FF6F7752A404D892A4360
:1014A0004FF6FB752A408D882A434FF6FF652B4087
:1014B0004FF6FF552B408D892B43CD892B438380DD
:1014C0000483CD888586028470BD70B50024002217
:1014D0000023058C4FF6EF7635400584028C838817
:1014E000048B48F6FF752C404FF6FF452C400D88C5
:1014F0004FF6FF7606EA05252C434FF6DF752A40A6
:101500000D8906EA05152A434D8806EA05152A4382
:10151000444DA84202D0494DA8421DD14FF67F75D7
:101520002A404D894FF6FF7606EA05152A434FF605
:10153000BF752A408D8806EA05152A434FF6FF3508
:101540002B404FF2FF752B408D8906EA85052B4312
:10155000CD8906EA85052B4383800483CD880587E2
:10156000028470BD70B5002400220023058C4FF664
:10157000FF6635400584028C8388848B4FF68F7517
:101580002C404FF6FC752C400D882C434FF6FF5530
:101590002A400D894FF6FF7606EA05252A434D8835
:1015A00006EA05252A431F4DA84202D0234DA84232
:1015B0001DD14FF2FF752A404D894FF6FF7606EA9E
:1015C00005252A434FF6FF352A408D8806EA052572
:1015D0002A434EF6FF752B404DF6FF752B408D8943
:1015E00006EA05152B43CD8906EA05152B438380B2
:1015F0008483CD888587028470BD70B50022002366
:101600000024058C4EF6FF7635400584038C8488D3
:10161000828B48F6FF752A404FF6FF452A400D8819
:1016200020E00000002C01400004004000080040C1
:10163000000C004000100040001400400034014045
:10164000004C01400050014000540140001800408F
:10165000001C0040002000400040014000440140C8
:10166000004801404FF6FF7606EA05252A434DF66D
:10167000FF752B400D8906EA05352B434D8806EA98
:1016800005352B43FA4DA84202D0FA4DA84208D1A5
:101690004BF6FF752C408D894FF6FF7606EA8515CF
:1016A0002C4384808283CD88A0F84050038470BD91
:1016B000828B4FF2FF331A408283828B4FF6FF7387
:1016C00003EA01231A4382837047F0B50C4615469E
:1016D000002200210026078C4EF6FF7C07EA0C074B
:1016E0000784828B018C4FF6FF7707EA043640F6B9
:1016F000FF473A404FF6FF7707EA05273A434FF690
:10170000FF7707EA03373A43D94FB8420ED0D94F93
:10171000B8420BD0B0F1804F08D0D74FB84205D0B7
:10172000D64FB84202D0D64FB84206D14DF6FF7719
:10173000394046F48057394305E047F6FF573940B2
:1017400044F48057394382830184F0BD828B4FF685
:10175000F3731A408283828B0A4382837047F0B509
:101760000C461546002200210026078C4FF6FF6C20
:1017700007EA0C070784828B018C4FF6FF7707EA94
:1017800004264FF60C773A404FF6FF7707EA031727
:101790002F433A43B64FB8420ED0B64FB8420BD0A3
:1017A000B0F1804F08D0B44FB84205D0B34FB84223
:1017B00002D0B34FB84206D14FF6FF57394046F436
:1017C0008077394305E04FF2FF57394044F4807782
:1017D000394382830184F0BD028B4FF2FF331A40FC
:1017E0000283028B4FF6FF7303EA01231A4302833D
:1017F0007047F0B50C461546002200210026078CE4
:101800004FF6EF7C07EA0C070784028B018C4FF63A
:10181000FF7707EA041640F6FF473A404FF6FF7796
:1018200007EA03373A434FF6FF7707EA05273A43BB
:101830008F4FB8420ED08F4FB8420BD0B0F1804FCF
:1018400008D08D4FB84205D08C4FB84202D08C4F93
:10185000B84206D14FF6DF77394046F010073943DA
:1018600005E04FF65F77394044F0100739430283B3
:101870000184F0BD028B4FF6F3731A400283028B92
:101880000A4302837047F0B50C461546002200213A
:10189000068C4FF6FE773E400684028B018C4FF695
:1018A0000C7632407E1C06EA03162E433243704EFD
:1018B000B0420ED06F4EB0420BD0B0F1804F08D086
:1018C0006D4EB04205D06D4EB04202D06C4EB0426B
:1018D00006D14FF6FD76314044F00106314305E074
:1018E0004FF6F576314044F001063143028301841E
:1018F000F0BD70B505460C465D4885420ED05D488A
:1019000085420BD0B5F1804F08D05B48854205D0A9
:101910005A48854202D05A48854200D100E000BFB3
:10192000208850B92389A28861882846FFF7ABFF39
:10193000E1882846FFF79EFF25E0208804280AD189
:101940002389A28861882846FFF753FFE18828464B
:10195000FFF742FF17E0208808280AD12389A288D0
:1019600061882846FFF7FBFEE1882846FFF7EEFE78
:1019700009E02389A28861882846FFF7A6FEE1884E
:101980002846FFF795FE70BD2DE9F04105460C464F
:1019900000260127608808B9022600E00026A088FA
:1019A000012801D1022700E001272088A0B923895E
:1019B000A28861882846FFF766FFE1882846FFF77E
:1019C00059FF23893A4631462846FFF712FFE1883E
:1019D0002846FFF701FF13E02389A2886188284683
:1019E000FFF707FFE1882846FFF7F6FE23893A460E
:1019F00031462846FFF747FFE1882846FFF73AFFC0
:101A0000BDE8F0810A884B881A438B881A43CB883B
:101A10001A430B891A434B891A438B891A43A0F83E
:101A2000442070474FF6FF71818000210180C18002
:101A30004180017270470021018041808180C18016
:101A4000018141818181C1817047002101804180F4
:101A5000012181800021C180018170470021018026
:101A600041808180C1800181418181817047000076
:101A7000002C0140003401400004004000080040F8
:101A8000000C004021B1028842F00102028004E013
:101A900002884FF6FE731A400280704731B1B0F8E9
:101AA000442042F40042A0F8442005E0B0F844206D
:101AB000C2F30E02A0F8442070471AB183890B4389
:101AC000838102E083898B438381704781827047E1
:101AD00041EA0203A0F8483070471AB183890B43EA
:101AE000838102E083898B438381704701894FF6AC
:101AF000F8721140018170470A46002101894FF6B2
:101B00008F73194011430181704730B504460D466B
:101B100029462046FFF7F0FF208940F0070020818A
:101B200030BD2DE9F04104460D4616461F46602D96
:101B300006D13B46012231462046FFF75AFE05E01A
:101B40003B46012231462046FFF79DFE29462046AE
:101B5000FFF7D2FF208940F007002081BDE8F08127
:101B600030B50C4600210189C9B24FF6FF7505EA70
:101B70000325154325432943018130BD2DE9F0415B
:101B800005460E4617469846002443463A463146D7
:101B90002846FFF7E5FF2C894FF6F870044044F023
:101BA00007044FF68F70044044F070042C81BDE8A8
:101BB000F081F0B504460D4616461F463B463246B8
:101BC00029462046FFF7CCFF208940F48040208141
:101BD000F0BD0185828270470A46002101884FF6D8
:101BE0008F731940114301807047F0B50C461546BC
:101BF0001E460021002200230189028B038C4FF630
:101C0000F877394021434FF6FC473A4040F201173C
:101C10003A434FF6DD773B404FF6FF7707EA06176A
:101C20002F433B43018102830384F0BD0A46002118
:101C3000018B4FF68F7319401143018370470A4699
:101C40000021018B48F6FF7319404FF6FF7303EA3A
:101C500002231943018370470A460021818B4FF606
:101C60008F7319401143818370470A460021818B8D
:101C700048F6FF7319404FF6FF7303EA0223194336
:101C80008183704721B1028842F08002028004E023
:101C900002884FF67F731A400280704721B1828814
:101CA00042F00402828004E082884FF6FB731A40FF
:101CB0008280704721B1828842F00802828004E06D
:101CC00082884FF6F7731A408280704721B182886C
:101CD00042F00102828004E082884FF6FE731A40CF
:101CE000828070470A460021018B4FF6F773194036
:101CF0001143018370470A460021018B4FF2FF73A5
:101D000019404FF6FF7303EA02231943018370471A
:101D10000A460021818B4FF6F773194011438183E6
:101D200070470A460021818B4FF2FF7319404FF62E
:101D3000FF7303EA02231943818370470A46002197
:101D4000018B4FF6FB7319401143018370470A461C
:101D50000021018B4FF6FF3319404FF6FF7303EA62
:101D600002231943018370470A460021818B4FF6F5
:101D7000FB7319401143818370470A460021818B10
:101D80004FF6FF3319404FF6FF7303EA022319435E
:101D9000818370470A460021018B4FF67F731940FB
:101DA0001143018370470A460021018BC1F30E01E4
:101DB0004FF6FF7303EA02231943018370470A4673
:101DC0000021818B4FF67F73194011438183704747
:101DD0000A460021818BC1F30E014FF6FF7303EA1F
:101DE00002231943818370470A460021018C4FF674
:101DF000FD7319401143018470470A460021018C8C
:101E00004FF6F77319401143018470470A460021C9
:101E1000018C4FF6DF7319404FF6FF7303EA02138C
:101E20001943018470470A460021018C4FF67F73E5
:101E300019404FF6FF7303EA0213194301847047F8
:101E40000A460021018C4FF6FF5319404FF6FF73ED
:101E500003EA02231943018470470A460021018CDA
:101E60004FF2FF7319404FF6FF7303EA0223194341
:101E7000018470470A460021018C4DF6FF7319401A
:101E80004FF6FF7303EA023319430184704730B5FC
:101E9000002301248C40A3B2048C9C430484048C52
:101EA00002FA01F5ADB22C43048430BD30B50023F5
:101EB00004248C40A3B2048C9C430484048C02FA56
:101EC00001F5ADB22C43048430BD70B5034600204B
:101ED00000241846183001258D40ACB21D8CA54356
:101EE0001D8409B1082909D100EB6100056825F0BE
:101EF000700505600568154305600EE00D1FC5F30C
:101F00004E052844056825F4E045056005684FF650
:101F1000FF7606EA02263543056070BD21B10288CE
:101F200042F00202028004E002884FF6FD731A407C
:101F30000280704721B1028842F00402028004E06E
:101F400002884FF6FB731A400280704721B18288E5
:101F500042F08002828004E082884FF67F731A404C
:101F60008280704702884FF6F7731A400280028819
:101F70000A430280704782884FF68F731A4082802E
:101F800082880A438280704702894FF6F8731A40AC
:101F9000028102890A430281704702894FF67F73EA
:101FA0001A40028102890A43028170478184704786
:101FB00081857047818670470187704781877047A8
:101FC000A0F84010704702884FF6FF431A40028085
:101FD00002880A43028070470146888E7047014696
:101FE000088F70470146888F70470146B1F840005E
:101FF00070470146888C70470146088D704702463D
:102000000020138A0B400BB1012000E00020704734
:10201000CA430282704730B50246002000230024E4
:10202000158A05EA0103958905EA010413B10CB18B
:10203000012000E0002030BDCA430282704700004A
:1020400010B50446FB48844209D101218803FFF7FB
:102050009FF800214FF48040FFF79AF832E0F648ED
:10206000844209D101214804FFF79FF800214FF471
:102070000030FFF79AF825E0F048844209D10121A9
:102080008804FFF792F800214FF48020FFF78DF8C5
:1020900018E0EB48844209D10121C804FFF785F814
:1020A00000214FF40020FFF780F80BE0E548844260
:1020B00008D101210805FFF778F800214FF48010BE
:1020C000FFF773F810BD2DE9F04786B005460E46C0
:1020D0000024A24600BFA1460027B08900B100BF7E
:1020E0002F462C8A4CF6FF700440F08804432C8263
:1020F000AC894EF6F3100440B088318908437189E9
:1021000008430443AC81AC8A4FF6FF400440B089D9
:102110000443AC8201A8FEF7B4FFC648874202D14F
:10212000DDF810A001E0DDF80CA0A88900F4004063
:1021300040B10AEBCA0000EB0A1031684900B0FB5D
:10214000F1F807E00AEBCA0000EB0A1031688900D9
:10215000B0FBF1F86420B8FBF0F004012009642121
:1021600001FB1089A88900F4004040B1322000EB47
:10217000C900B0FBF1F000F00700044308E0322092
:1021800000EB09106421B0FBF1F000F00F000443F4
:102190002C8106B0BDE8F0874FF416510160002194
:1021A0008180C18001810C214181002181817047A2
:1021B00010B502460020108A4FF2FF0318400B882A
:1021C0004C8823438C882343CC88234318431082B4
:1021D00010BD0021018041808180C180704721B104
:1021E000828942F40052828104E082894DF6FF73B5
:1021F0001A4082817047F0B503460024002600256E
:10220000002040F66A17B94200D100BF1846C1F35A
:10221000421401F01F06012707FA06F5012C01D12F
:102220000C3004E0022C01D1103000E014301AB15F
:1022300007682F43076002E00768AF430760F0BDFF
:102240001AB1838A0B43838202E0838A8B438382A1
:102250007047028A4FF6F0731A400282028A0A43DC
:102260000282704782894FF2FF731A40828182890D
:102270000A438281704721B1828942F00202828141
:1022800004E082894FF6FD731A4082817047028A0A
:102290004FF6DF731A400282028A0A4302827047B5
:1022A00021B1028A42F48042028204E0028A4BF6A3
:1022B000FF731A4002827047C1F3080282807047A0
:1022C00001468888C0F308007047818941F0010108
:1022D00081817047028BD2B20283028B42EA0122D3
:1022E00002837047028B02F47F420283028B0A430F
:1022F0000283704721B1828A42F02002828204E088
:10230000828A4FF6DF731A408282704721B1828A37
:1023100042F01002828204E0828A4FF6EF731A4084
:102320008282704721B1828A42F00802828204E0F0
:10233000828A4FF6F7731A408282704721B18289F0
:1023400042F40042828103E08289C2F30E0282815C
:10235000704721B1828A42F40062828204E0828A5C
:102360004FF2FF731A4082827047828A4FF6FB73E6
:102370001A408282828A0A438282704721B1828A0D
:1023800042F00202828204E0828A4FF6FD731A4014
:102390008282704702460020B1F5007F00D100BF65
:1023A00013880B400BB1012000E00020704701F4BE
:1023B0000072B2F5007F00D100BFCA4302807047AF
:1023C00070B50246002400230025002040F66A165E
:1023D000B14200D100BFC1F3421501F01F03012635
:1023E00006FA03F3012D02D19689334006E0022D4F
:1023F00002D1168A334001E0968A33400C1201263E
:1024000006FA04F41688344013B10CB1012000E040
:10241000002070BD10B50022002340F66A14A142CE
:1024200000D100BF0A1201249440A3B2DC4304800F
:1024300010BD00000038014000440040004800404A
:10244000004C00400050004010B56FF00400FEF753
:102450005AF82E4800682E49B0FBF1F02D4908705B
:102460000846007800EB4001C1EBC0104FF6FF7149
:1024700001EAC0002849088010BD0146254A1278AB
:102480004A434FF0E0235A6100229A611A461269CA
:1024900042F001021A6100BF4FF0E022106900F023
:1024A00001021AB100F48032002AF5D04FF0E02288
:1024B000126922F001024FF0E0231A6100229A61B2
:1024C00070470146144A12884A434FF0E0235A618C
:1024D00000229A611A46126942F001021A6100BF95
:1024E0004FF0E022106900F001021AB100F48032CE
:1024F000002AF5D04FF0E022126922F001024FF0DD
:10250000E0231A6100229A61704700000000002059
:1025100000127A003000002032000020A34A0A4056
:102520000243A34B1A6070470146072323EA0102C6
:1025300012029F4B1B1D18684FF6FF0318409D4B5E
:10254000184310439A4B1B1D186070472DE9F0414A
:102550000746884614461D462846FFF7E5FFC5F1A5
:10256000040007FA00F60F20284100EA080006439D
:1025700006F00F06E21704EBD2625211920002F14C
:10258000E022D2F800212146E31704EBD3635B116C
:10259000A4EB431C012303FA0CF31A432046E31770
:1025A00004EBD3635B119B0003F1E023C3F800212C
:1025B0008148005D40EA06107F490855BDE8F0817A
:1025C00070B504460B46CE1701EB9676C6F387002E
:1025D000CE1701EB9676B610A1EB8606B606350E41
:1025E000764B9B6943F00103744EB3614FEAB633F7
:1025F00053F820300F26AE40B343714E46F82030DA
:10260000334653F8203004FA05F61E436C4B43F86A
:1026100020606C4B1B6801268E403343694E33604B
:1026200002F0010343B1674B0C331B6801268E4057
:102630003343644E0C36336002F0020343B1614B06
:1026400008331E6801238B401E435E4B08331E6017
:1026500070BD00B5002059490861C8601420486168
:1026600000208861C8610846006840F001000860E9
:102670000846406854490840504948600846006888
:10268000524908404D4908600846006820F48020FF
:1026900008600846406820F4FE004860002088601A
:1026A00000214FF00060FFF739FF00BD10B5404832
:1026B0000830006840F004003D49083108603F4898
:1026C000C06940F080503D49C8614148406840F4CD
:1026D00080703F4948600846006840F00400086088
:1026E0000846006840F002000860FDF751FD10BD8B
:1026F0003048001D2E49091D0860704701464906F3
:102700002E4A926942F001022C4B9A612C4A083AF7
:10271000526822F0E0622A4B083B5A601A4652681F
:102720000A435A60704730B504460025FFF791FF11
:102730002248006840F480302049086000BF1F48EC
:102740000068400C0028FAD04FF480601B494860B4
:10275000A01EC4B20846406840EA8440486008466B
:10276000406840F4803048601A48006840F0320009
:10277000184908601148006840F080700F490860EF
:1027800000BF0E480068400E0028FAD00B48406891
:1027900040F002000949486005E008484068C0F37D
:1027A000870505F00305022DF7D130BD80FFFF1F1F
:1027B00008ED00E00000FA0500E400E0001002402F
:1027C00008000140000401400000FFF8FFFFF6FE92
:1027D0000070004000200240014600BF704700BF6B
:1027E000244A128802F04002002AF9D0C2B2214BDA
:1027F0001B1D1A80704710B586B00446012144F2B3
:102800000400FEF7ABFC4FF40070ADF81400032099
:102810008DF8160018208DF8170005A91648FEF748
:102820007BF94FF48060ADF8140004208DF8170098
:1028300005A91148FEF770F901940020ADF80800D1
:10284000ADF80A00ADF80C00ADF810000C20ADF8A2
:102850000E0001A90748FFF736FC002240F225517F
:102860000448FFF7C8FC01210248FFF7B8FC06B096
:1028700010BD0000003801400008014008B50121EA
:102880000420FEF76BFC1020ADF800008DF803006B
:1028900003208DF8020069460C48FEF73DF908BD9B
:1028A00018B900210A4A11600FE00A490968491C59
:1028B000084A1160814208D105490968C943064A9E
:1028C000C2F890110021034A1160704700080140CE
:1028D00090012142380000200000214208B501216A
:1028E0000420FEF73BFC2020ADF8000048208DF8C6
:1028F000030069466A48FEF70FF908BD01466948BA
:10290000006828B968480088401C674A108002E0C7
:102910000020654A10806348006828B96348007841
:1029200010B90120614A107061480078B0B95F4861
:102930000078012807D15F480078401C5D4A10707C
:1029400001205B4A10705B480078022806D1002005
:10295000584A1070584A1080022070475148006849
:10296000012804D10020514A1070514A107051487A
:10297000007801281CD150480088401C4E4A108025
:102980001046008888420ADD47480088884206DAF7
:102990000020484A1070484A10800120DDE7424874
:1029A0000088884204DD0020424A1070424A1080AC
:1029B0000020D2E741480078002831D0394800682B
:1029C00070B13F48006858B13648001D006838B102
:1029D0003B48001F006818B1394808380068F8B94A
:1029E0000020364A10702F48006808B9012115E010
:1029F0003348006808B9022110E0314808380068FF
:102A000008B903210AE02748001D006808B904211D
:102A100004E02B48001F006800B90521C8B27047C8
:102A200020480068012814D125480068012810D1E9
:102A30001C48001D006801280BD12148001F0068B8
:102A4000012806D11E4808380068012801D11B4A18
:102A500010700020E3E71B48008840B91148006867
:102A600028B919480088401C1749088002E0002056
:102A70001549088014480088C82807DD012011493D
:102A80000880002010490880012070470D48008808
:102A9000012802D100200B4908800020F5E7000042
:102AA0000008014014012142420000203C000020A7
:102AB0003D0000203E000020400000204400002097
:102AC0003C012242480000204600002010B50A4682
:102AD0001AB10123FE4C236002E00023FC4C23606A
:102AE000002114E00023FB4C236000F080031BB1A5
:102AF0000123241F236003E00023F64C241F2360DE
:102B00000123F44C23604306180E4B1CD9B208294C
:102B1000E8DB0123EE4C236010BD30B500241CE03F
:102B200004F1B001C8B20021FFF7D0FF0021084630
:102B3000FFF7CCFF00211020FFF7C8FF002508E0B9
:102B4000E54901EBC501085D0121FFF7BFFF681CE6
:102B5000C5B2802DF4DB601CC4B2082CE0DB30BDB4
:102B600000B500218D20FFF7B1FF00211420FFF7F1
:102B7000ADFF0021AF20FFF7A9FF00BD00B5002188
:102B80008D20FFF7A3FF00211020FFF79FFF0021FA
:102B9000AE20FFF79BFF00BD30B500240CE0002500
:102BA00006E00020CC4901EBC5010855681CC5B200
:102BB000802DF6DB601CC4B2082CF0DBFFF7ADFF04
:102BC00030BDF0B5144600267F2801DC3F2900DD2A
:102BD000F0BD0B46CF1701EB5777FF10C7F1070782
:102BE000FAB2CF1701EB5777FF10A1EBC707FDB281
:102BF000C5F107070123BB40DEB24CB1B64B03EB76
:102C0000C0039B5C3343B44F07EBC007BB5408E0E1
:102C1000B14B03EBC0039B5CB343AF4F07EBC00763
:102C2000BB5400BFD4E72DE9F04F80460C46154653
:102C30001E46A346A5F12000C5B200273EE00C2E9B
:102C400007D105EB4500A54901EB800010F807907E
:102C500004E0A34800EB051010F807904FF0000ABD
:102C600026E009F0800028B121464046099AFFF786
:102C7000A8FF09E0099808B9012000E000200246F9
:102C800021464046FFF79DFF4FEA49604FEA106931
:102C9000601CC4B2A4EB0B00B04205D15C4608F145
:102CA000010000F0FF0806E00AF1010000F0FF0A51
:102CB000BAF1080FD5DB00BF781CC7B2B742BEDB44
:102CC000BDE8F08F10B50246012000E050430B0034
:102CD000A1F10104E1B2F9D110BD2DE9FF4F81B09E
:102CE000074691461E460E9D4FF0000A002439E02B
:102CF000301B401EC1B20A20FFF7E4FFB9FBF0F021
:102D00000A21B0FBF1F201FB1208BAF1000F16D153
:102D1000701EA04213DDB8F1000F0ED10120AB46AA
:102D200005EBDB71491001FB04710090C8B22B4622
:102D300020220299FFF777FF12E04FF0010A0120ED
:102D4000AB4605EBDB71491001FB04710090C8B282
:102D500008F13001CAB22B460299FFF764FF00BFA9
:102D6000601CC4B2B442C3DB05B0BDE8F08F78B5D7
:102D700005460E46144618E07A2D03DD002506F1BF
:102D80001000C6B23A2E04DD002005460646FFF7C5
:102D900003FF0120009022780C2331462846FFF7DC
:102DA00042FF05F10800C5B2641C20780028E3D179
:102DB00078BD08B501210820FEF7D0F93820ADF81C
:102DC000000010208DF8030002208DF802006946F3
:102DD0004448FDF7A1FE01210420FEF7BFF94FF49E
:102DE0000040ADF8000002208DF8020010208DF8A0
:102DF000030069463C48FDF78FFE0120FDF7E5FF23
:102E00000020FEF718F90020FDF7CFFD0020FDF7A8
:102E1000DCFF00202F49083908606420FFF751FBD0
:102E200001203249C1F88C010021AE20FFF74EFE8F
:102E30000021D520FFF74AFE00215020FFF746FE73
:102E40000021A820FFF742FE00213F20FFF73EFEB1
:102E50000021D320FFF73AFE00210846FFF736FE97
:102E600000214020FFF732FE00218D20FFF72EFECB
:102E700000211420FFF72AFE00212020FFF726FE64
:102E800000210220FFF722FE0021A120FFF71EFEF5
:102E90000021C020FFF71AFE0021DA20FFF716FEFE
:102EA00000211220FFF712FE00218120FFF70EFE05
:102EB0000021EF20FFF70AFE0021D920FFF706FED0
:102EC0000021F120FFF702FE0021DB2010E00000CE
:102ED000BC0121429481214258000020C0330008E7
:102EE00034380008000C01400008014000802142F5
:102EF000FFF7ECFD00213020FFF7E8FD0021A420C2
:102F0000FFF7E4FD0021A620FFF7E0FD0021AF2040
:102F1000FFF7DCFDFFF740FE08BD000000B587B0FD
:102F200001214FF40170FEF719F94FF40040FEF74C
:102F300079F80620ADF8040000208DF8070001A9FB
:102F40002348FDF7E9FD2348FDF7FCFA0020029035
:102F50008DF80C008DF80D004FF4602004900020D7
:102F6000059001208DF8180002A91A48FDF711FB01
:102F700001211848FDF739FB1648FDF758FB00BF43
:102F80001448FDF759FB0028FAD11248FDF75EFB03
:102F900000BF1048FDF75FFB0028FAD107B000BD65
:102FA00010B504460723012221460A48FDF789FB94
:102FB00001210848FDF759FB00BF02210548FDF734
:102FC000C5FC0028F9D00348FDF7E2FB10BD000066
:102FD00000080140002401407FB505460C46012150
:102FE000C802FEF7BBF8ADF80850ADF80440002069
:102FF000ADF80A00ADF8060001A91748FEF7E6F99A
:10300000012211461448FEF758FD19208DF80000E2
:1030100000208DF8010001208DF802008DF80300DA
:103020006846FDF726FA01210B48FEF72BFD7FBD10
:1030300008B501210820FEF791F84FF47040ADF873
:10304000000010208DF8030003208DF8020069466F
:103050000248FDF761FD08BD002C0140000C014055
:1030600010B501213448FEF7D6FF002862D00121B7
:103070003148FEF7E1FF31480078401CC0B22F49CB
:103080000870042801DD002008702C480078012811
:1030900023D100202A49086001202A49C1F8B00143
:1030A0002749091F086000202649C1F8BC010120FA
:1030B000FFF776FF0F2190FBF1F023490860012014
:1030C0001F49086000201E4908390860091D086072
:1030D00001201C49C1F8BC012CE0184800780228E6
:1030E00028D016480078032823D10120144908600D
:1030F00000201449C1F8B0011149091F08600120DE
:103100001049C1F8BC010220FFF74AFF142190FBCF
:10311000F1F00E49086000200949086001200849C3
:1031200008390860091D086000200649C1F8BC0183
:1031300000E000BF10BD0000002C01405000002046
:10314000B881214200802142140000201800002094
:10315000704700000FB4044910B503AA029800F0AC
:10316000D1F810BC5DF814FB340000202DE9F041CB
:103170000E460446002020622046E168884730B3AE
:10318000252805D0D4E901219047206A401CF2E7A8
:10319000E168204600278847050018D0A5F14100C6
:1031A000192802D820354FF40067324629462046B8
:1031B0002760FCF7D5FF40B1012804D0F61D26F0AA
:1031C00007060836D8E7361DD6E72846DAE7206A2C
:1031D000BDE8F0812DE9F04106460024106875290C
:1031E000314615A510D0AFF30080002802DA404226
:1031F00012A507E031688A0701D511A502E0490749
:1032000004D510A5012401E0AFF3008000210A23BA
:1032100006F1240707E0B0FBF3F203FB12003030A5
:1032200078541046491C0028F5D123462A463046DA
:10323000BDE8F04100F00CB8000000002D000000D7
:103240002B00000020000000704770477047704757
:103250002DE9F0470D4699469246044600F12408B0
:103260000168880604D5E06921F01001216000E0C2
:103270000120A84201DD471B00E00027A1697A195F
:1032800002EB0900081AA0612078C00602D420468B
:10329000AFF30080002608E0D4E901211AF8060007
:1032A0009047206A401C761C20624E45F4DB207853
:1032B000C0060AD52046AFF3008006E0D4E901211C
:1032C00030209047206A401C2062381EA7F1010779
:1032D000F4DC07E0D4E9012118F805009047206AE2
:1032E000401C2062281EA5F10105F3DC2046AFF347
:1032F00000802078000602D50220BDE8F08701207A
:10330000FBE70000074B70B50D467B4400F011F859
:103310000446284600F020F810B14FF0FF3070BD91
:10332000204670BDD1F4FFFF01694A1C0261087894
:10333000704700B58FB0CDE90131002105910549F5
:103340007944CDE9031011466846FFF70FFF0FB02F
:1033500000BD0000E5FFFFFF007B00F0800070472C
:10336000754600F029F8AE4605006946534620F040
:103370000700854618B020B5FDF764F8BDE8204089
:103380004FF000064FF000074FF000084FF0000B21
:1033900021F00701AC46ACE8C009ACE8C009ACE8D4
:1033A000C009ACE8C0098D4670470446AFF3008001
:1033B0002046FCF7E7FE0000004870475804002054
:1033C00000000000000000000000000000000000FD
:1033D0003F400000000000000000300040003000CE
:1033E0004000000009000BC03D000BC03D0009007B
:1033F00018C024407FE0224031800000180024C023
:103400001B000D803240018003801C4027401C803F
:1034100007400040100060000000000000000000B5
:103420000000000000001F802040402000004020DD
:1034300020401F8000000000090006001F800600D9
:1034400009000000040004003F80040004000000A4
:1034500000100060000000000000000004000400F4
:103460000400040004000000000000400000000010
:1034700000000000002001C00600380040000000ED
:103480001F802040204020401F800000000010408E
:103490003FC000400000000018C0214022402440EE
:1034A0001840000010802040244024401B80000071
:1034B00002000D0011003FC0014000003C8024408C
:1034C00024402440238000001F80244024403440B6
:1034D000038000003000200027C0380020000000DA
:1034E0001B802440244024401B8000001C0022C07C
:1034F000224022401F800000000000000840000021
:103500000000000000000000046000000000000057
:10351000000004000A00110020804040090009005A
:10352000090009000900000000004040208011004F
:103530000A000400180020002340240018000000A6
:103540001F802040274029401F400000004007C046
:1035500039000F0001C0004020403FC024402440FB
:103560001B8000001F802040204020403080000051
:1035700020403FC0204020401F80000020403FC02E
:1035800024402E4030C0000020403FC024402E0088
:10359000300000000F0010802040224033800200E5
:1035A00020403FC0040004003FC020402040204095
:1035B0003FC02040204000000060202020203FC06D
:1035C0002000200020403FC024400B0030C020409D
:1035D00020403FC020400040004000C03FC03C00B1
:1035E00003C03C003FC0000020403FC00C4023000F
:1035F0003FC020001F802040204020401F8000004E
:1036000020403FC024402400180000001F802140BB
:10361000214020E01FA0000020403FC024402600A1
:1036200019C0004018C024402440224031800000CE
:10363000300020403FC020403000000020003F808C
:10364000004000403F80200020003E0001C00700F5
:1036500038002000380007C03C0007C038000000D8
:10366000204039C0060039C020400000200038400A
:1036700007C0384020000000304021C026403840BC
:1036800020C00000000000007FE04020402000003B
:10369000000070000C00038000400000000040208B
:1036A00040207FE0000000000000200040002000DB
:1036B00000000000001000100010001000100010AA
:1036C0000000000040000000000000000000028038
:1036D0000540054003C0004020003FC004400440B6
:1036E0000380000000000380044004400640000006
:1036F00000000380044024403FC0004000000380DD
:103700000540054003400000000004401FC0244065
:1037100024402000000002E005500550065004201F
:1037200020403FC00440040003C0004000000440AB
:1037300027C000400000000000100010041027E027
:103740000000000020403FC00140070004C00440CA
:10375000204020403FC000400040000007C004005F
:1037600007C0040003C00000044007C00440040078
:1037700003C00040000003800440044003800000B8
:10378000041007F004500440038000000000038090
:103790000440045007F00010044007C00240040039
:1037A00004000000000006400540054004C0000081
:1037B000000004001F800440004000000400078057
:1037C0000040044007C000400400070004C001801E
:1037D00006000400060001C0070001C0060000004A
:1037E000044006C0010006C0044000000410071099
:1037F00004E00180060004000000044005C006400B
:10380000044000000000000004007BE040200000B5
:10381000000000000000FFF0000000000000402059
:103820007BE0040000000000400080004000200019
:103830002000400000000000000000000000000028
:10384000000000000000000000001FCC000C000081
:103850000000000000000800300060000800300098
:1038600060000000022003FC1E20022003FC1E203A
:103870000220000000000E1811043FFF10840C7895
:10388000000000000F0010840F3800C00778188473
:103890000078000000780F8410C411240E9800E412
:1038A00000840008080068007000000000000000AC
:1038B0000000000000000000000007E018182004CD
:1038C00040020000000040022004181807E0000039
:1038D000000000000240024001800FF00180024021
:1038E000024000000080008000800FF8008000800F
:1038F000008000000001000D000E0000000000002C
:103900000000000000000080008000800080008037
:10391000008000800000000C000C0000000000008F
:103920000000000000000006001800600180060092
:1039300018002000000007F0080810041004080810
:1039400007F000000000080408041FFC0004000445
:103950000000000000000E0C10141024104411840C
:103960000E0C000000000C18100411041104128841
:103970000C700000000000E00320042408241FFC59
:103980000024000000001F98108411041104108806
:1039900010700000000007F0088811041104188856
:1039A0000070000000001C00100010FC13001C0040
:1039B0001000000000000E381144108410841144DF
:1039C0000E38000000000700088C104410440888DE
:1039D00007F00000000000000000030C030C0000D2
:1039E00000000000000000000001010600000000CF
:1039F00000000000000000800140022004100808C0
:103A000010040000022002200220022002200220D6
:103A100002200000000010040808041002200140E9
:103A20000080000000000E001200100C106C1080CE
:103A30000F00000003E00C1813E4142417C4082836
:103A400007D000000004003C03C41C40074000E411
:103A5000001C000410041FFC1104110411040E8842
:103A60000070000003E00C1810041004100410088B
:103A70001C10000010041FFC10041004100408089F
:103A800007F0000010041FFC1104110417C41004F7
:103A90000818000010041FFC1104110017C01000CA
:103AA0000800000003E00C181004100410441C78F7
:103AB0000040000010041FFC10840080008010846F
:103AC0001FFC10040000100410041FFC100410045C
:103AD0000000000000030001100110011FFE100093
:103AE0001000000010041FFC110403801464181C53
:103AF0001004000010041FFC100400040004000463
:103B0000000C000010041FFC1F0000FC1F001FFC25
:103B10001004000010041FFC0C04030000E0101847
:103B20001FFC100007F00808100410041004080817
:103B300007F0000010041FFC10841080108010801B
:103B40000F00000007F0081810241024101C080AA9
:103B500007F2000010041FFC1104110011C0113005
:103B60000E0C000400000E1C11041084108410447C
:103B70001C3800001800100010041FFC1004100076
:103B80001800000010001FF81004000400041004C6
:103B90001FF8100010001E0011E0001C00701380C0
:103BA0001C0010001FC0103C00E01F0000E0103C93
:103BB0001FC000001004180C163401C001C01634D8
:103BC000180C100410001C00130400FC13041C004B
:103BD000100000000804101C1064108413041C045E
:103BE000101800000000000000007FFE40024002AC
:103BF00040020000000030000C0003800060001C48
:103C00000003000000004002400240027FFE00006E
:103C100000000000000000002000400040004000C4
:103C2000200000000001000100010001000100016E
:103C300000010001000040004000200000000000E2
:103C400000000000000000980124014401440144E8
:103C500000FC000410001FFC00880104010400881F
:103C600000700000000000700088010401040104DD
:103C700000880000000000700088010401041108A1
:103C80001FFC0004000000F8014401440144014409
:103C900000C800000000010401040FFC110411041D
:103CA00011001800000000D601290129012901C9CD
:103CB0000106000010041FFC008401000100010443
:103CC00000FC000400000104190419FC00040004B5
:103CD000000000000000000300010101190119FEAD
:103CE0000000000010041FFC0024004001B4010C7F
:103CF000010400000000100410041FFC0004000474
:103D000000000000010401FC0104010001FC0104A9
:103D1000010000FC010401FC008401000100010419
:103D200000FC0004000000F8010401040104010487
:103D300000F80000010101FF008501040104008872
:103D400000700000000000700088010401040105FB
:103D500001FF00010104010401FC008401040100D1
:103D600001800000000000CC012401240124012472
:103D70000198000000000100010007F8010401049F
:103D800000000000010001F8000400040004010824
:103D900001FC0004010001800170000C00100160B2
:103DA0000180010001F0010C003001C00030010C65
:103DB00001F0010000000104018C00740170018C0D
:103DC00001040000010101810171000E0018016071
:103DD0000180010000000184010C013401440184D0
:103DE000010C0000000000000000000001003EFC8B
:103DF000400240020000000000000000FFFF000041
:103E0000000000000000400240023EFC01000000F3
:103E100000000000000060008000800040004000C2
:103E200020002000443E0008000000205800000050
:103E3000280100089C3E000858000020600A00008D
:103E40004401000800A24A04000000000000000035
:103E5000010203040607080900000000000000003A
:103E60000000000001020304010203040607080920
:103E7000020406080000000000000000000000002E
:103E80000000000000000000010000000000000031
:0C3E9000640000000000000000000000C2
:04000005080000ED02
:00000001FF
